S00E00007461736B31352E73726563FD
S11300000C942A000C943F000C943F000C943F0085
S11300100C943F000C943F000C943F000C943F0060
S11300200C943F000C943F000C943F000C943F0050
S11300300C943F000C943F000C943F000C943F0040
S11300400C943F000C943F000C943F000C943F0030
S11300500C943F0011241FBECFE5D8E0DEBFCDBF16
S113006010E0A0E6B0E0E2EBFDE002C005900D92E6
S1130070AE38B107D9F70E94EE040C94D7060C945D
S11300800000843008F07BC0683008F07AC041304A
S1130090C1F5813091F028F08230D9F0833029F114
S11300A072C02AB381E090E002C0880F991F6A955C
S11300B0E2F7822B8ABB81E0089527B381E090E0C8
S11300C002C0880F991F6A95E2F7822B87BB81E0F3
S11300D0089524B381E090E002C0880F991F6A95C7
S11300E0E2F7822B84BB81E0089521B381E090E0A4
S11300F002C0880F991F6A95E2F7822B81BB81E0C9
S11301000895411142C0813099F028F08230E9F01D
S1130110833041F13CC02AB381E090E002C0880FF3
S1130120991F6A95E2F7809582238ABB81E008953E
S113013027B381E090E002C0880F991F6A95E2F727
S11301408095822387BB81E0089524B381E090E009
S113015002C0880F991F6A95E2F78095822384BBB9
S113016081E0089521B381E090E002C0880F991FD7
S11301706A95E2F78095822381BB81E0089580E04F
S1130180089580E0089581E0089580E0089581E075
S11301900895843008F07BC0683008F07AC041309C
S11301A0C1F5813091F028F08230D9F0833029F103
S11301B072C02BB381E090E002C0880F991F6A954A
S11301C0E2F7822B8BBB81E0089528B381E090E0B5
S11301D002C0880F991F6A95E2F7822B88BB81E0E1
S11301E0089525B381E090E002C0880F991F6A95B5
S11301F0E2F7822B85BB81E0089522B381E090E091
S113020002C0880F991F6A95E2F7822B82BB81E0B6
S11302100895411142C0813099F028F08230E9F00C
S1130220833041F13CC02BB381E090E002C0880FE1
S1130230991F6A95E2F7809582238BBB81E008952C
S113024028B381E090E002C0880F991F6A95E2F715
S11302508095822388BB81E0089525B381E090E0F6
S113026002C0880F991F6A95E2F78095822385BBA7
S113027081E0089522B381E090E002C0880F991FC5
S11302806A95E2F78095822382BB81E0089580E03D
S1130290089580E0089581E0089580E0089581E064
S11302A00895843008F068C0683008F067C0813071
S11302B0F1F030F0823091F1833009F446C060C02F
S11302C079B381E090E09C01062E02C0220F331F17
S11302D00A94E2F7872F90E08223932302C0959536
S11302E087956A95E2F7FA01808381E0089576B3F1
S11302F081E090E09C01062E02C0220F331F0A9475
S1130300E2F7872F90E08223932302C09595879587
S11303106A95E2F7FA01808381E0089573B381E07E
S113032090E09C01062E02C0220F331F0A94E2F7CC
S1130330872F90E08223932302C0959587956A9531
S1130340E2F7FA01808381E0089570B381E090E0E0
S11303509C01062E02C0220F331F0A94E2F7872F56
S113036090E08223932302C0959587956A95E2F7DE
S1130370FA01808381E0089580E0089580E0089583
S113038081E00895843008F099C0683008F098C07E
S1130390813059F138F0823009F44AC0833009F4CD
S11303A06AC090C04130A1F480B78B7F80BF2AB36C
S11303B081E090E002C0880F991F6A95E2F7982FB8
S11303C0909592239ABB9BB3892B8BBB81E00895B4
S11303D02BB381E090E002C0880F991F6A95E2F781
S11303E0809582238BBB81E008954130A1F480B7CE
S11303F08B7F80BF27B381E090E002C0880F991FF4
S11304006A95E2F7982F9095922397BB98B3892B1E
S113041088BB81E0089528B381E090E002C0880F92
S1130420991F6A95E2F78095822388BB81E008953D
S11304304130A1F480B78B7F80BF24B381E090E08A
S113044002C0880F991F6A95E2F7982F909592231E
S113045094BB95B3892B85BB81E0089525B381E0D6
S113046090E002C0880F991F6A95E2F78095822375
S113047085BB81E008954130A1F480B78B7F80BFB4
S113048021B381E090E002C0880F991F6A95E2F7DA
S1130490982F9095922391BB92B3892B82BB81E0D4
S11304A0089522B381E090E002C0880F991F6A95F5
S11304B0E2F78095822382BB81E0089580E008956D
S11304C080E0089581E008958430A0F4813049F0FB
S11304D028F0823049F0833051F00EC06ABB81E0CD
S11304E0089567BB81E0089564BB81E0089561BB12
S11304F081E0089580E0089580E008958430A0F4B8
S1130500813049F028F0823049F0833051F00EC038
S11305106BBB81E0089568BB81E0089565BB81E011
S1130520089562BB81E0089580E0089580E0089515
S113053041E060E083E00E94C20141E061E083E0C9
S11305400E94C20141E062E083E00E94C20141E0F6
S113055063E083E00E94C20141E064E083E00E9422
S1130560410041E065E083E00E94410041E066E033
S113057083E00E94410041E067E083E00E94410083
S113058041E064E083E00E94C90041E065E083E06B
S11305900E94C90041E066E083E00E94C90041E096
S11305A067E083E00E94C9000895FF920F931F93B0
S11305B0CF93DF931F92CDB7DEB704E0FF24FA9404
S11305C04EC040E0602F83E00E94C90010E03EC0AE
S11305D0AE014F5F5F4F612F83E00E94510189811B
S11305E0811133C083ED90E30197F1F700C000005F
S11305F0AE014F5F5F4F612F83E00E9451018981FB
S1130600811110C0812F90E0202F30E02450310957
S1130610880F991F880F991F805A9F4FFC01E20F82
S1130620F31FF080AE014F5F5F4F612F83E00E94A4
S1130630510107C0AE014F5F5F4F612F83E00E94FD
S1130640510189818823B1F304C01F5F143008F479
S1130650BFCF41E0602F83E00E94C9000F5F0830E4
S113066008F4AFCF8F2D0F90DF91CF911F910F9191
S1130670FF90089541E063E081E00E94C9008FEC9F
S113068097E00197F1F700C0000040E063E081E0EB
S11306900E94C9008FEC97E00197F1F700C00000B9
S11306A00895682F80E00E947E0241E061E081E0CD
S11306B00E94C90040E062E081E00E94C9000E94FB
S11306C03A038FEC97E00197F1F700C0000008951A
S11306D0682F80E00E947E0240E061E081E00E9499
S11306E0C90040E062E081E00E94C9000E943A0330
S11306F08FEC97E00197F1F700C0000008950F9385
S11307001F93CF938C01C0E003C00E945103CF5FBD
S1130710F801EC0FF11D80818111F7CFCF911F916A
S11307200F9108952F923F924F925F926F927F9212
S11307308F929F92AF92BF92CF92DF92EF92FF92ED
S11307400F931F93CF93DF93CDB7DEB728970FB6E0
S1130750F894DEBF0FBECDBF29833A834B835C83FD
S11307606D837E83382E292EA0E00E949A0609F01C
S113077081C080E30E945103CBC02F813885492D6D
S1130780582D672D762D852D942D01E00E94780635
S1130790822E932E48875F83B62FA72FF82FE92F39
S11307A002E00E947806A22EB32EC42ED52EE62E89
S11307B0F72E082F192F282D392D48855F816B2F8F
S11307C07A2F8F2F9E2F0E94910628873F83942E85
S11307D0852E762E672E582E492E0F2EFAE0AF2E38
S11307E0F02DB12CC12CD12CE12CF12C00E010E027
S11307F029813A814B815C816D817E81832D922D8B
S11308000E941906A22EB32EC42ED52EE62EF72E44
S1130810082F192F28853F81492D582D672D762DB6
S1130820852D942D0E9491062F833887942E852E32
S1130830762E672E582E492E0F2EFAE0AF2EF02D6D
S1130840B12CC12CD12CE12CF12C00E010E0298139
S11308503A814B815C816D817E81832D922D0E9432
S11308601B0629833A834B835C836D837E83382EF6
S1130870292E09C081E01886912C812C712C612CC1
S1130880512C412C8F8329813A814B815C816D816C
S11308907E81832D922DA0E00E949A0609F06DCFEF
S11308A02BC00F2EFAE0AF2EF02DB12CC12CD12C81
S11308B0E12CF12C00E010E02F813885492D582DD2
S11308C0672D762D852D942D0E94190680E3820FC5
S11308D00E9451032F813885492D582D672D762D7F
S11308E0852D942D0E941B062F833887942E852EE8
S11308F0762E672E582E492E2F813885492D582D56
S1130900672D762D852D942DA1E00E949A0649F637
S113091028960FB6F894DEBF0FBECDBFDF91CF91FE
S11309201F910F91FF90EF90DF90CF90BF90AF9009
S11309309F908F907F906F905F904F903F902F90FB
S1130940089581E00E9468038FE19EE40197F1F726
S113095000C0000008952FE788E391E02150804013
S11309609040E1F700C000006FEF80E00E94640255
S113097041E061E081E00E94410041E062E081E009
S11309800E94410041E063E081E00E94410082E076
S11309900E9468038FEC97E00197F1F700C0000014
S11309A088E30E9468038FEC97E00197F1F700C099
S11309B000008CE00E9468038FEC97E00197F1F748
S11309C000C000000E94A10486E00E9468038FEC2E
S11309D097E00197F1F700C0000008950E94AB046E
S11309E00E94980280E790E00E947F032FE38DE04D
S11309F093E0215080409040E1F700C000000E9445
S1130A00A104D0E0C0E0812C912C5401412C512C44
S1130A103201C12CD12C76010E94D502182F8F3FB0
S1130A20D9F380ED810F8A3008F042C0812F0E94F3
S1130A305103D1111EC0CC0CDD1CEE1CFF1CD701D0
S1130A40C601880F991FAA1FBB1F880F991FAA1FD1
S1130A50BB1FC80ED91EEA1EFB1E812F90E0C09753
S1130A60092E000CAA0BBB0BC80ED91EEA1EFB1ED6
S1130A70D3CF440C551C661C771CB301A201440F50
S1130A80551F661F771F440F551F661F771F440E9F
S1130A90551E661E771E412F50E0CA01C097092ECD
S1130AA0000CAA0BBB0B480E591E6A1E7B1EB4CF4A
S1130AB01B3231F01D3221F01A3211F01F3241F491
S1130AC0C111AACF812F0E945103C12FD1E0A4CF1D
S1130AD01D3309F063C08DE30E945103CB3249F00A
S1130AE018F4CA32A1F042C0CD3251F0CF32C1F075
S1130AF03DC046015701840C951CA61CB71C36C08A
S1130B004601570184189508A608B7082FC0A70105
S1130B109601C301B2010E94DF054B015C0126C0AE
S1130B20411451046104710449F0C701B601A301E1
S1130B3092010E94EF0549015A0118C00E94A104C4
S1130B4080E890E00E947F032FE78AE196E021503D
S1130B5080409040E1F700C000000E94A1045301CE
S1130B60420173016201D0E0C0E056CF282D392D37
S1130B704A2D5B2D75016401FF0CCC08DC2C760139
S1130B806C2D7C2D8C2D9C2D0E949203750164018B
S1130B90D0E0C0E0412C512C32013ECF133409F097
S1130BA03BCF0E94A104D0E0C0E0812C912C5401E1
S1130BB0412C512C3201C12CD12C76012DCFDB01DB
S1130BC08F939F930E940E06BF91AF91A29F800DB9
S1130BD0911DA39F900DB29F900D11240895052E91
S1130BE097FB1EF400940E94060657FD07D00E944E
S1130BF0A60607FC03D04EF40C94060650954095C7
S1130C00309521953F4F4F4F5F4F089590958095B4
S1130C10709561957F4F8F4F9F4F08950E94C8062E
S1130C20A59F900DB49F900DA49F800D911D11243C
S1130C300895689401C0E8948F929F92CF93DF93B4
S1130C400E942706DF91CF919F908F90089588246A
S1130C509924F401E401B0E49F93AA279A158B0424
S1130C609C04ED05FE05CF05D007A10798F4AD2F30
S1130C70DC2FCF2FFE2FE92D982C892E982F872F2C
S1130C80762F652F542F432F322F2227B85031F758
S1130C90BF9127C01B2EBF91BB27220F331F441FB8
S1130CA0551F661F771F881F991F881C991CEE1FEC
S1130CB0FF1FCC1FDD1FAA1FBB1F8A149B04EC055A
S1130CC0FD05CE05DF05A007B10748F08A189B088B
S1130CD0EC09FD09CE09DF09A00BB10B21601A94C0
S1130CE0E1F62EF49401AF01BE01CD01000C08958C
S1130CF00F93083090F0982F872F762F652F542F5D
S1130D00432F322F22270850F4CF220F331F441FC2
S1130D10551F661F771F881F991F0A95B2F70F91F9
S1130D2008952A0D3B1D4C1D5D1D6E1D7F1D801FEA
S1130D30911F08950024A7FD00942A17300540054B
S1130D40500560057005800590050895A1E21A2EEE
S1130D50AA1BBB1BFD010DC0AA1FBB1FEE1FFF1F5B
S1130D60A217B307E407F50720F0A21BB30BE40BAB
S1130D70F50B661F771F881F991F1A9469F76095F2
S1130D807095809590959B01AC01BD01CF010895AC
S1130D90A29FB001B39FC001A39F700D811D1124B8
S1130DA0911DB29F700D811D1124911D0895F89419
S1050DB0FFCF6F
S1130DB23738392F3435362A3132332D43303D2BEF
S1130DC243616C63756C61746F72205E5F5F5E0079
S1110DD24572726F723A204469762030000038
S9030000FC
