:100000000C942A000C9495020C94E6020C94470080
:100010000C9447000C9447000C9447000C94470044
:100020000C9447000C9447000C9447000C94470034
:100030000C9447000C9447000C9447000C94470024
:100040000C9447000C9447000C9447000C94470014
:100050000C94470011241FBECFE5D8E0DEBFCDBF12
:1000600010E0A0E6B0E0EEE0FCE002C005900D92EA
:10007000AC37B107D9F720E0ACE7B0E001C01D9282
:10008000A038B207E1F70E94EC040C9405060C942A
:100090000000843008F07BC0683008F07AC041303E
:1000A000C1F5813091F028F08230D9F0833029F108
:1000B00072C02AB381E090E002C0880F991F6A9550
:1000C000E2F7822B8ABB81E0089527B381E090E0BC
:1000D00002C0880F991F6A95E2F7822B87BB81E0E7
:1000E000089524B381E090E002C0880F991F6A95BB
:1000F000E2F7822B84BB81E0089521B381E090E098
:1001000002C0880F991F6A95E2F7822B81BB81E0BC
:100110000895411142C0813099F028F08230E9F011
:10012000833041F13CC02AB381E090E002C0880FE7
:10013000991F6A95E2F7809582238ABB81E0089532
:1001400027B381E090E002C0880F991F6A95E2F71B
:100150008095822387BB81E0089524B381E090E0FD
:1001600002C0880F991F6A95E2F78095822384BBAD
:1001700081E0089521B381E090E002C0880F991FCB
:100180006A95E2F78095822381BB81E0089580E043
:10019000089580E0089581E0089580E0089581E069
:1001A0000895843008F07BC0683008F07AC0413090
:1001B000C1F5813091F028F08230D9F0833029F1F7
:1001C00072C02BB381E090E002C0880F991F6A953E
:1001D000E2F7822B8BBB81E0089528B381E090E0A9
:1001E00002C0880F991F6A95E2F7822B88BB81E0D5
:1001F000089525B381E090E002C0880F991F6A95A9
:10020000E2F7822B85BB81E0089522B381E090E084
:1002100002C0880F991F6A95E2F7822B82BB81E0AA
:100220000895411142C0813099F028F08230E9F000
:10023000833041F13CC02BB381E090E002C0880FD5
:10024000991F6A95E2F7809582238BBB81E0089520
:1002500028B381E090E002C0880F991F6A95E2F709
:100260008095822388BB81E0089525B381E090E0EA
:1002700002C0880F991F6A95E2F78095822385BB9B
:1002800081E0089522B381E090E002C0880F991FB9
:100290006A95E2F78095822382BB81E0089580E031
:1002A000089580E0089581E0089580E0089581E058
:1002B00008956830C0F5813091F028F08230D9F08F
:1002C000833029F132C02BB381E090E002C0880F67
:1002D000991F6A95E2F782278BBB81E0089528B3C6
:1002E00081E090E002C0880F991F6A95E2F78227AB
:1002F00088BB81E0089525B381E090E002C0880FBB
:10030000991F6A95E2F7822785BB81E0089522B3A1
:1003100081E090E002C0880F991F6A95E2F782277A
:1003200082BB81E0089580E0089581E008958430E3
:1003300008F099C0683008F098C0813059F138F061
:10034000823009F44AC0833009F46AC090C0413059
:10035000A1F480B78B7F80BF2AB381E090E002C018
:10036000880F991F6A95E2F7982F909592239ABB70
:100370009BB3892B8BBB81E008952BB381E090E088
:1003800002C0880F991F6A95E2F7809582238BBB84
:1003900081E008954130A1F480B78B7F80BF27B3FF
:1003A00081E090E002C0880F991F6A95E2F7982FCC
:1003B0009095922397BB98B3892B88BB81E00895D1
:1003C00028B381E090E002C0880F991F6A95E2F798
:1003D0008095822388BB81E008954130A1F480B7E5
:1003E0008B7F80BF24B381E090E002C0880F991F0B
:1003F0006A95E2F7982F9095922394BB95B3892B39
:1004000085BB81E0089525B381E090E002C0880FAC
:10041000991F6A95E2F78095822385BB81E0089554
:100420004130A1F480B78B7F80BF21B381E090E0A1
:1004300002C0880F991F6A95E2F7982F9095922332
:1004400091BB92B3892B82BB81E0089522B381E0F6
:1004500090E002C0880F991F6A95E2F78095822389
:1004600082BB81E0089580E0089580E0089581E0F6
:1004700008958430A0F4813049F028F0823049F0AA
:10048000833051F00EC06ABB81E0089567BB81E004
:10049000089564BB81E0089561BB81E0089580E028
:1004A000089580E008958430A0F4813049F028F068
:1004B000823049F0833051F00EC06BBB81E008956B
:1004C00068BB81E0089565BB81E0089562BB81E06F
:1004D000089580E0089580E0089595B79C7F95BFCA
:1004E000813031F0A0F0823039F0833049F00CC017
:1004F00085B7816085BF0BC085B7826085BF07C0A7
:1005000085B7836085BF03C085B7826085BF8AB722
:1005100080648ABF08958BB780648BBF78940895F8
:1005200090937D0080937C0008951F920F920FB6E8
:100530000F9211242F933F934F935F936F937F9369
:100540008F939F93AF93BF93EF93FF93E0917C00C2
:10055000F0917D00309709F00995FF91EF91BF91DF
:10056000AF919F918F917F916F915F914F913F914B
:100570002F910F900FBE0F901F90189595B7937FF6
:1005800095BF813031F0A0F0823039F0833049F0EE
:100590000CC085B7846085BF0BC085B7886085BFF8
:1005A00007C085B78C6085BF03C085B7886085BFED
:1005B0008AB780688ABF08958BB780688BBF7894AC
:1005C000089590937F0080937E0008951F920F926C
:1005D0000FB60F9211242F933F934F935F936F9316
:1005E0007F938F939F93AF93BF93EF93FF93E0918C
:1005F0007E00F0917F00309709F00995FF91EF910F
:10060000BF91AF919F918F917F916F915F914F912A
:100610003F912F910F900FBE0F901F90189541E0C2
:1006200063E081E00E94D1008FEC97E00197F1F741
:1006300000C0000040E063E081E00E94D1008FEC48
:1006400097E00197F1F700C000000895682F80E05F
:100650000E94530241E061E081E00E94D10040E04D
:1006600062E081E00E94D1000E940F038FEC97E0CE
:100670000197F1F700C000000895682F80E00E9404
:10068000530240E061E081E00E94D10040E062E07E
:1006900081E00E94D1000E940F038FEC97E0019748
:1006A000F1F700C0000008950F931F93CF938C01C2
:1006B000C0E003C00E942603CF5FF801EC0FF11DDC
:1006C00080818111F7CFCF911F910F9108952F92C3
:1006D0003F924F925F926F927F928F929F92AF92D2
:1006E000BF92CF92DF92EF92FF920F931F93CF931F
:1006F000DF93CDB7DEB728970FB6F894DEBF0FBEF5
:10070000CDBF29833A834B835C836D837E83382EF0
:10071000292EA0E00E94F90509F081C080E30E9423
:100720002603CBC02F813885492D582D672D762D76
:10073000852D942D01E00E94D705822E932E4887A7
:100740005F83B62FA72FF82FE92F02E00E94D7056D
:10075000A22EB32EC42ED52EE62EF72E082F192F3B
:10076000282D392D48855F816B2F7A2F8F2F9E2F53
:100770000E94F00528873F83942E852E762E672EC3
:10078000582E492E0F2EFAE0AF2EF02DB12CC12C91
:10079000D12CE12CF12C00E010E029813A814B8131
:1007A0005C816D817E81832D922D0E947805A22E21
:1007B000B32EC42ED52EE62EF72E082F192F2885FE
:1007C0003F81492D582D672D762D852D942D0E9422
:1007D000F0052F833887942E852E762E672E582E7F
:1007E000492E0F2EFAE0AF2EF02DB12CC12CD12CBA
:1007F000E12CF12C00E010E029813A814B815C81F1
:100800006D817E81832D922D0E947A0529833A8302
:100810004B835C836D837E83382E292E09C081E053
:100820001886912C812C712C612C512C412C8F839A
:1008300029813A814B815C816D817E81832D922D4E
:10084000A0E00E94F90509F06DCF2BC00F2EFAE051
:10085000AF2EF02DB12CC12CD12CE12CF12C00E0CD
:1008600010E02F813885492D582D672D762D852D47
:10087000942D0E94780580E3820F0E9426032F8129
:100880003885492D582D672D762D852D942D0E9464
:100890007A052F833887942E852E762E672E582E34
:1008A000492E2F813885492D582D672D762D852D80
:1008B000942DA1E00E94F90549F628960FB6F89408
:1008C000DEBF0FBECDBFDF91CF911F910F91FF9083
:1008D000EF90DF90CF90BF90AF909F908F907F90E0
:1008E0006F905F904F903F902F9008959FEF980FDB
:1008F000923070F4613170F4662371F0813019F434
:100900002FE7260F0AC0823041F42FEB260F05C0D7
:1009100020E803C020E801C020E8822F0E943D03A8
:100920008FEC97E00197F1F700C00000089581E097
:100930000E943D038FE19EE40197F1F700C00000A3
:1009400008952FE788E391E0215080409040E1F73F
:1009500000C000006FEF80E00E94390241E061E0DA
:1009600081E00E94490041E062E081E00E9449008C
:1009700041E063E081E00E94490082E00E943D0383
:100980008FEC97E00197F1F700C0000088E30E9428
:100990003D038FEC97E00197F1F700C000008CE079
:1009A0000E943D038FEC97E00197F1F700C0000033
:1009B0000E94970486E00E943D038FEC97E0019728
:1009C000F1F700C00000089510926000089560E003
:1009D00081E00E945901089541E060E081E00E94B9
:1009E000490040E060E081E00E94D10040E062E028
:1009F00083E00E94490040E063E083E00E944900F8
:100A000041E062E083E00E94970141E063E083E01F
:100A10000E9497016FEF82E00E94390260E082E05D
:100A20000E9453020E94A1040E94970461E081E0A9
:100A30000E94760481E690E00E94540382E00E94C6
:100A40006D0287EE94E00E9490020E948B0282E089
:100A50000E94BE0284EE94E00E94E1020E94DC0249
:100A6000809160008A3018F081E08093600090915E
:100A70006000EDEC9E9FE12D1124E695E695E6954C
:100A8000EE0F8E2F880F880FE80F9E1BE92FF0E0E6
:100A9000EE58FF4F608182E00E94530261E082E0E5
:100AA0000E9476048AE690E00E9454032091600040
:100AB00030E040E050E060E070E080E090E00E94D4
:100AC00067032FEF84E39CE0215080409040E1F7E2
:100AD00000C00000809160008F5F80936000809173
:100AE00060008A3008F4BCCF81E080936000B8CF0A
:100AF000689401C0E8948F929F92CF93DF930E94F5
:100B00008605DF91CF919F908F9008958824992436
:100B1000F401E401B0E49F93AA279A158B049C0486
:100B2000ED05FE05CF05D007A10798F4AD2FDC2F0A
:100B3000CF2FFE2FE92D982C892E982F872F762FD7
:100B4000652F542F432F322F2227B85031F7BF91F2
:100B500027C01B2EBF91BB27220F331F441F551FD9
:100B6000661F771F881F991F881C991CEE1FFF1F87
:100B7000CC1FDD1FAA1FBB1F8A149B04EC05FD05BB
:100B8000CE05DF05A007B10748F08A189B08EC09DD
:100B9000FD09CE09DF09A00BB10B21601A94E1F623
:100BA0002EF49401AF01BE01CD01000C08950F9306
:100BB000083090F0982F872F762F652F542F432FD2
:100BC000322F22270850F4CF220F331F441F551F06
:100BD000661F771F881F991F0A95B2F70F91089516
:100BE0002A0D3B1D4C1D5D1D6E1D7F1D801F911F1D
:100BF00008950024A7FD00942A17300540055005EC
:0E0C000060057005800590050895F894FFCFFB
:100C0E0001436F756E7465723A0056616C75653A84
:0C0C1E0020003F065B4F666D7D077F6F76
:00000001FF
