:100000000C942A000C9447000C9447000C94470071
:100010000C9447000C9447000C9447000C94470044
:100020000C9447000C9447000C9447000C94690012
:100030000C9447000C9447000C9447000C94470024
:100040000C9447000C9447000C9447000C94470014
:100050000C94470011241FBECFE5D8E0DEBFCDBF12
:1000600010E0A0E6B0E0E2E5F2E002C005900D92FB
:10007000AA36B107D9F720E0AAE6B0E001C01D9288
:10008000A337B207E1F70E94B3000C9427010C9448
:1000900000006AE00E941B01E82FF0E0E05AFF4FE9
:1000A000808182BBC09AEFE1FEE43197F1F700C096
:1000B0000000C098E92FF0E0E05AFF4F808182BB3A
:1000C000C19A8FE19EE40197F1F700C00000C1984A
:1000D00008951F920F920FB60F9211242F933F9302
:1000E0008F939F93AF93BF9380916F009091700017
:1000F000A0917100B091720030916E0023E0230F47
:100100002D3768F126E8230F0296A11DB11D20931B
:100110006E0080936F0090937000A0937100B09375
:10012000720080916A0090916B00A0916C00B09178
:100130006D000196A11DB11D80936A0090936B0024
:10014000A0936C00B0936D00BF91AF919F918F9180
:100150003F912F910F900FBE0F901F901895019611
:10016000A11DB11DD4CF789483B7836083BF83B7BB
:10017000886483BF89B7816089BF82E08EBD8EB5F8
:1001800081608EBD8FB581608FBD85B5846085BD72
:1001900085B5806485BD87E886B91AB8A09AA19A0A
:1001A000A29A8FEF81BB87B3836087BB00E010E02A
:1001B000A89ACFE08C2F0E9449008C2F0E94490002
:1001C0008C2F0E9449008C2F0E9449008C2F0E9486
:1001D0004900C15079F7A898A99AC5E08C2F0E94D0
:1001E00049008C2F0E9449008C2F0E9449008C2FBF
:1001F0000E9449008C2F0E944900C15079F7A998AC
:10020000AA9ACAE08C2F0E9449008C2F0E944900B4
:100210008C2F0E9449008C2F0E9449008C2F0E9435
:100220004900C15079F7AA980115110509F4C0CF0A
:100230000E940000BDCF991B79E004C0991F96175A
:1002400008F0961B881F7A95C9F780950895F89451
:02025000FFCFDE
:0A025200C0F9A4B0999282F88090E0
:00000001FF
