:100000000C942A000C9434000C9434000C943400AA
:100010000C9434000C9434000C9434000C94340090
:100020000C9434000C9434000C9434000C94340080
:100030000C9434000C9434000C9434000C94340070
:100040000C9434000C9434000C9434000C94340060
:100050000C94340011241FBECFE5D8E0DEBFCDBF25
:100060000E946F010C946A020C940000CF93DF93FE
:10007000C82FD62F40E00E94480041E06D2F8C2F02
:100080000E94C000DF91CF9108950E943801089529
:10009000823429F118F4813439F008958334D1F190
:1000A000843409F452C00895413059F42AB381E0F0
:1000B00090E002C0880F991F6A95E2F7822B8ABBF5
:1000C000089541115CC02AB381E090E002C0880F1E
:1000D000991F6A95E2F7809582238ABB0895413083
:1000E00059F427B381E090E002C0880F991F6A9508
:1000F000E2F7822B87BB0895411141C027B381E00D
:1001000090E002C0880F991F6A95E2F780958223DC
:1001100087BB0895413059F424B381E090E002C0D8
:10012000880F991F6A95E2F7822B84BB08954111CD
:1001300026C024B381E090E002C0880F991F6A9521
:10014000E2F78095822384BB0895413059F421B3AE
:1001500081E090E002C0880F991F6A95E2F7822B38
:1001600081BB089541110BC021B381E090E002C032
:10017000880F991F6A95E2F78095822381BB0895C5
:10018000823429F118F4813439F008958334D1F19F
:10019000843409F452C00895413059F42BB381E0FE
:1001A00090E002C0880F991F6A95E2F7822B8BBB03
:1001B000089541115CC02BB381E090E002C0880F2C
:1001C000991F6A95E2F7809582238BBB0895413091
:1001D00059F428B381E090E002C0880F991F6A9516
:1001E000E2F7822B88BB0895411141C028B381E01A
:1001F00090E002C0880F991F6A95E2F780958223EC
:1002000088BB0895413059F425B381E090E002C0E5
:10021000880F991F6A95E2F7822B85BB08954111DB
:1002200026C025B381E090E002C0880F991F6A952F
:10023000E2F78095822385BB0895413059F422B3BB
:1002400081E090E002C0880F991F6A95E2F7822B47
:1002500082BB089541110BC022B381E090E002C03F
:10026000880F991F6A95E2F78095822382BB0895D3
:100270008234A1F018F4813431F008958334C9F048
:10028000843411F1089589B390E002C09595879563
:100290006A95E2F78170FA018083089586B390E051
:1002A00002C0959587956A95E2F78170FA0180837F
:1002B000089583B390E002C0959587956A95E2F71B
:1002C0008170FA018083089580B390E002C0959513
:1002D00087956A95E2F78170FA0180830895CF933C
:1002E000DF931F92CDB7DEB719820E94E50160E06F
:1002F00081E40E94360061E081E40E94360062E001
:1003000081E40E94360063E081E40E94360064E0EC
:1003100081E40E943600AE014F5F5F4F60E081E4F0
:100320000E9445008981811103C00E94D001F3CF52
:10033000AE014F5F5F4F61E081E40E94450089811B
:10034000811104C081E00E945002E5CFAE014F5FF1
:100350005F4F62E081E40E9445008981811104C001
:1003600082E00E945002D7CFAE014F5F5F4F63E043
:1003700081E40E9445008981811104C083E00E94CC
:100380005002C9CFAE014F5F5F4F64E081E40E942D
:10039000450089818111BFCF84E00E945002BBCF0C
:1003A00040E062E084E40E94C00040E063E084E456
:1003B0000E94C00040E064E084E40E94C00040E08D
:1003C00065E084E40E94C000089541E062E084E4B6
:1003D0000E94480041E063E084E40E94480041E05C
:1003E00064E084E40E94480041E065E084E40E9407
:1003F00048000E94D001089541E062E084E40E9438
:10040000C00040E063E084E40E94C00041E064E09A
:1004100084E40E94C00040E065E084E40E94C000E3
:10042000089540E062E084E40E94C00041E063E09F
:1004300084E40E94C00040E064E084E40E94C000C4
:1004400041E065E084E40E94C000089540E062E07D
:1004500084E40E94C00040E063E084E40E94C000A5
:1004600041E064E084E40E94C00040E065E084E490
:100470000E94C000089541E062E084E40E94C00050
:1004800040E063E084E40E94C00040E064E084E473
:100490000E94C00040E065E084E40E94C00008952E
:1004A000823061F018F4813031F011C0833049F0AE
:1004B000843051F00CC00E94FC0108950E9411028A
:1004C00008950E94260208950E943B0208950E940A
:0804D000D0010895F894FFCF5C
:00000001FF
